:100000000C942E010C9456010C9456010C9456013C
:100010000C9456010C9456010C9456010C94560104
:100020000C9456010C9456010C94D5060C9444077C
:100030000C9456010C9456010C9456010C945601E4
:100040000C9456010C9456010C9456010C945601D4
:100050000C9456010C9456010C9456010C9476099C
:100060000C9456010C9456010C9456010C945601B4
:100070000C9456010C9456010C9456010C945601A4
:100080000C9456010C9456010C9456010C94560194
:100090000C9456010C9456010C9456010C94560184
:1000A0000C9456010C9456010C945601000000006B
:1000B000000000002A2B28000000000000000000C3
:1000C0000000000000000000000000002C9EB4A012
:1000D000A1A2A434A6A7A5AE362D3738271E1F200F
:1000E000212223242526B333B62EB7B89F848586D4
:1000F0008788898A8B8C8D8E8F9091929394959618
:100100009798999A9B9C9D2F3130A3AD3504050695
:100110000708090A0B0C0D0E0F10111213141516F7
:100120001718191A1B1C1DAFB1B0B5000000000054
:10013000240027002A002D003000000000002500C8
:1001400028002B002E003100080B000202020000E4
:10015000090400000102020000052400100105242A
:10016000010101042402060524060001070581039C
:1001700010004009040100020A0000000705020205
:100180004000000705830240000004030904120137
:100190000002EF0201404123368000010102030109
:1001A00041726475696E6F204C4C430041726475F6
:1001B000696E6F204C656F6E6172646F00000000A5
:1001C000002300260029002C002F0004040404044E
:1001D00003040502020202040302020202060606EA
:1001E0000606060404020202040404080201104088
:1001F0008040102040804080080204018040201090
:100200000201108010204040200000000200090F71
:100210000000030401000C000000000000000000CA
:10022000000000000000000005010906A101850290
:10023000050719E029E715002501750195088102D8
:100240009501750881039506750815002573050746
:10025000190029738100C000F309370C11241FBE57
:10026000CFEFDAE0DEBFCDBF22E0A6E8B1E001C00B
:100270001D92A038B207E1F711E0A0E0B1E0EAE09A
:10028000FDE102C005900D92A638B107D9F711E043
:10029000CDE2D1E004C02197FE010E94800CCC3257
:1002A000D107C9F70E94B20A0C94780E0C94000092
:1002B000CF93DF93FC0181819091F901482F490F81
:1002C0005527551F483051059CF5A281B3811097E1
:1002D00009F525EF31E03383228320812093F70154
:1002E0008093F8018091FA01820F80832091FB01B5
:1002F000A22FB091FC018A2F821B8917E8F481811B
:100300003D91C82FD0E0C45FDE4F38838F5F81837B
:10031000F2CFD90118962D913C91199721153105ED
:10032000C1F725EF31E019963C932E931897D5CF5E
:1003300080E0DF91CF91089581E0FBCFFC018091B7
:10034000A401882311F13FB7F89482E08093E9007B
:100350002091F200822F90E01816190614F481E023
:1003600090E0882339F0289844E64093A301409117
:10037000F1004083222339F02091F200211103C0C3
:100380002BE62093E8003FBF08958FEF9FEF08957D
:10039000CF93DF931F92CDB7DEB76983DC01ED9178
:1003A000FC910280F381E02D41E050E0BE016F5FDF
:1003B0007F4F09950F90DF91CF91089583E080934F
:1003C000E9008091F200882319F08AE38093E80025
:1003D0000895CF93DF931F92CDB7DEB7FC018485DC
:1003E000958597FD08C02FEF3FEF358724870F9045
:1003F000DF91CF910895CE0101960E949E01019751
:1004000019F4898190E0F3CF8FEF9FEFF0CF0F9336
:100410001F93CF93DF931F92CDB7DEB78C01FC0102
:100420008485958597FF0BC0CE0101960E949E01A1
:10043000019771F4898190E0F80195878487F8012C
:10044000848595850F90DF91CF911F910F9108952D
:100450008FEF9FEFF1CFFC018485958597FD0BC051
:100460009FB7F89482E08093E9008091F2009FBFEB
:1004700090E0019608959FB7F89482E08093E90098
:100480008091F2009FBF90E00895409199015091B2
:100490009A01209197013091980142175307B4F4C3
:1004A0009091E8009570E1F39091E80092FD19C0F9
:1004B0008093F1008091990190919A0101968F7338
:1004C0009927892B19F48EEF8093E8008091990188
:1004D00090919A01019690939A018093990181E0FD
:1004E000089580E00895DF92EF92FF920F931F939B
:1004F000CF93DF93D82E8A01EB017B01E40EF51E2A
:10050000CE15DF0559F0D7FE12C0FE0184910E947E
:10051000450221968111F4CF0FEF1FEFC801DF9143
:10052000CF911F910F91FF90EF90DF9008958881F8
:10053000EECF2FB7F89487708093E9009091E80090
:10054000892F807295FF04C09091F20080E4891B8E
:100550002FBF089583E00E94990290E008956150B2
:1005600030F02091F100FC0120830196F8CF28980B
:1005700084E68093A301089580918F0181110DC0BD
:1005800082E080938B0184E080938C0110928E0135
:1005900010928D0181E080938F018BE891E00895A6
:1005A0000F931F93CF93DF931F92CDB7DEB782E0F7
:1005B000898342E450E068E471E080E80E947302BD
:1005C0000E94BC02DC0112960D911C9101151105CF
:1005D00089F0D801ED91FC910280F381E02DBE01FC
:1005E0006F5F7F4FC801099597FD04C0F801008532
:1005F0001185ECCF89810F90DF91CF911F910F91E1
:10060000089581508F3008F047C0E82FF0E0E55F93
:10061000FC4F0C94800C28032C031A0320032403A2
:100620004C034C034C032F03350339033D034303B1
:100630004C034703809180008F778093800008955A
:10064000809180008F7DF9CF80918000877FF5CFEA
:1006500084B58F7784BD089584B58F7DFBCF80915D
:1006600090008F77809390000895809190008F7D07
:10067000F9CF80919000877FF5CF8091C0008F7770
:100680008093C00008958091C0008F7DF9CF809144
:10069000C200877F8093C20008951F93CF93DF939A
:1006A000282F30E0F901E75FFD4F8491F901E65111
:1006B000FE4FD491F901E553FE4FC491CC23A9F02C
:1006C000162F81110E940103EC2FF0E0EE0FFF1FA7
:1006D000E65CFE4FA591B4918FB7F894EC9111119F
:1006E00008C0D095DE23DC938FBFDF91CF911F919F
:1006F0000895DE2BF8CFCF93DF9390E0FC01E65115
:10070000FE4F249185539E4FFC0184918823D1F0A4
:1007100090E0880F991FFC01E45DFE4FA591B49114
:10072000FC01E65CFE4FC591D49161110EC09FB7EC
:10073000F8948C91E22FE0958E238C932881E2230C
:10074000E8839FBFDF91CF9108958FB7F894EC9124
:10075000E22BEC938FBFF6CF3FB7F89480918701DF
:1007600090918801A0918901B0918A0126B5A89B3A
:1007700005C02F3F19F00196A11DB11D3FBFBA2F33
:10078000A92F982F8827BC01CD01620F711D811DF3
:10079000911D42E0660F771F881F991F4A95D1F778
:1007A0000895CF92DF92EF92FF920E94AC036B010B
:1007B0007C010E94AC036C197D098E099F09683E7B
:1007C000734081059105A8F3FF90EF90DF90CF90E3
:1007D00008957F928F929F92AF92BF92CF92DF92B5
:1007E000EF92FF920F931F93CF93DF93C82E8B014D
:1007F0007A018091A401811110C08FEF9FEFDF91EA
:10080000CF911F910F91FF90EF90DF90CF90BF900D
:10081000AF909F908F907F90089580919D0180FF71
:1008200005C08091E00082608093E000CE2DDF2D36
:10083000D12C8AEFB82E8C2D8770982E8C2D80723B
:10084000882E8C2D8074782E9AE3A92E209719F487
:10085000DD2009F44EC08C2D0E949902811106C042
:10086000BA94BB2051F20E94D103F0CF8C171D0621
:1008700011F00CF08C2F9FB7F8949092E900209122
:10088000E80025FD02C09FBFE1CF282F30E0C21B4A
:10089000D30B882029F08150A0F01092F100FBCFFB
:1008A000F801C7FC0AC0815050F041914093F1001B
:1008B000FACF44914093F10031968150D0F7020F66
:1008C000131FDD2021F0A092E800D12CDCCF809115
:1008D000E80085FD07C0A092E800DD24D3942097AE
:1008E00091F2F3CF209779F6772069F2A092E80091
:1008F000CACF5D9884E680939C01C70180CFEF92B8
:10090000FF921F93CF93DF931F92CDB7DEB77C0189
:100910008091060281112AC011E01093F901109311
:10092000FA018FEF91E09093FC018093FB0110920C
:10093000FE011092FD018FE291E09093F601809309
:10094000F50110920102109200021092030210921F
:100950000202109304021093050281EC8093FF01C0
:100960000E94BC020E9458011093060282E0898313
:1009700041E050E0BE016F5F7F4F8091F8010E941F
:10098000E90397FD08C08091F80148E050E0B70105
:1009900080640E94E9030F90DF91CF911F91FF9037
:1009A000EF900895CF93DF93EC0180910B018823A2
:1009B00031F083E00E94E9031816190634F081E053
:1009C00090E09B838A8380E090E0DF91CF9108954F
:1009D000DC01FB0112962C911297848195812817D6
:1009E000190641F491818081813A31F49D7F81E043
:1009F000913009F080E008958132E1F79B3029F4CD
:100A000082811F968C9381E008959A3099F78281B4
:100A100050968C93F8CFDC01FB0188E4808389E455
:100A2000818384E482831D969C911D979F709F5BB8
:100A300093831D968D919C9124E0969587952A9598
:100A4000E1F78F708F5B848385E00895EF92FF92CA
:100A50000F931F93CF93DF93FB012081213871F512
:100A60002381223259F5DC0112964C912481358183
:100A70004217130619F5EC010B851C85F12CE12CAE
:100A80000115110589F0F801448155816281738156
:100A900080E80E9473028F3F980749F0E80EF91E24
:100AA000D8010D911C91ECCF81E08F87C701DF91B8
:100AB000CF911F910F91FF90EF90089590E080E00B
:100AC000F6CFCF93DF93CDB7DEB769970FB6F89423
:100AD000DEBF0FBECDBFFC01DB018C918F5F8C931D
:100AE0009E012D5F3F4F8DE0D9011D928A95E9F758
:100AF00029E0298384E08A8391E09D8383E08E83CB
:100B00002A8721E22B879C879D879F8722E2288B5B
:100B100027E02B8B25E02C8B8E8B20E430E0388F68
:100B20002F8B998F82818B8395858685998B8A8B74
:100B3000838180688D8B49E150E0BE016F5F7F4FFC
:100B400080E00E94730269960FB6F894DEBF0FBE74
:100B5000CDBFDF91CF910895CF92DF92EF92FF92B8
:100B60000F931F93CF93DF936C01EB017B01E40E96
:100B7000F51E10E000E0CE15DF0581F069916D30C3
:100B8000D1F3D601ED91FC910190F081E02DC601E9
:100B90000995892B19F00F5F1F4FEDCFC801DF9129
:100BA000CF911F910F91FF90EF90DF90CF9008951C
:100BB000EF92FF921F93CF93DF93EC01162FE8E79C
:100BC000E60F683880F4E62FF0E067FF4FC0E0588A
:100BD000F10921E030E001C0220FEA95EAF78C81AB
:100BE000822B8C83E0E08E818E17D9F08F81E817FD
:100BF000C1F08885E817A9F08985E81791F08A8502
:100C0000E81779F08B85E81761F0DE01169690E021
:100C100080E02D9121114EC08C0F9D1FDC01169696
:100C2000EC93CE0104960E947F04EE24E394F12C11
:100C3000183838F11858DE0186E0112341F0169675
:100C40009C911697191303C016961C921697815003
:100C500011968111F2CFCE0104960E947F04C70144
:100C6000DF91CF911F91FF90EF900895E455FF4FD2
:100C7000E491E11118C081E090E09B838A83F12C1C
:100C8000E12CE12FF0E017FF21C0E058F10981E0ED
:100C900090E001C0880FEA95EAF780959C8189234E
:100CA0008C8310E0C8CFE7FF9ECF8C8182608C835D
:100CB000EF7799CF01968630910509F0AACF81E0B0
:100CC00090E09B838A83F12CE12CB2CFE455FF4F57
:100CD0001491112309F4C3CF17FFADCF8C818D7F01
:100CE0008C831F77A8CF089590E080E008950F933C
:100CF0001F93CF93DF93EC0188819981009759F07E
:100D00002A813B812617370730F081E0DF91CF91B0
:100D10001F910F9108958B016F5F7F4F0E94AB0D64
:100D2000009759F0998388831B830A832C813D8126
:100D3000232B59F7FC011082E8CF80E0E7CFEF9238
:100D4000FF920F931F93CF93DF93EC017B01FB0185
:100D500001900020E9F731978F01061B170BB801AE
:100D60000E94770628813981811113C02115310530
:100D700019F0C9010E94220D198218821D821C825D
:100D80001B821A82DF91CF911F910F91FF90EF90FC
:100D900008951D830C83B701C901DF91CF911F9185
:100DA0000F91FF90EF900C94710E1F920F920FB65F
:100DB0000F9211248F939F938091E1009091E10015
:100DC000937F9093E10083FF0FC01092E90091E0C0
:100DD0009093EB001092EC0092E39093ED00109250
:100DE000A40198E09093F00082FF22C093E09093DA
:100DF000E9009091F200992319F09AE39093E800AA
:100E000090919C01992341F090919C019150909375
:100E10009C01911101C05D9A9091A301992341F029
:100E20009091A30191509093A301911101C0289A30
:100E300084FF18C08091E2008E7E81608093E20082
:100E40008091E1008F7E8093E10080919D018E7EF4
:100E5000806180939D019F918F910F900FBE0F90A5
:100E60001F90189580FFF7CF8091E2008E7E806101
:100E70008093E2008091E1008E7E8093E10080917A
:100E80009D018E7E8160E5CF1F920F920FB60F926B
:100E90001124CF92DF92EF92FF920F931F932F9323
:100EA0003F934F935F936F937F938F939F93AF93F2
:100EB000BF93EF93FF93CF93DF93CDB7DEB76C97DC
:100EC000DEBFCDBF1092E9008091E80083FF25C00E
:100ED00068E0CE0145960E94AF0282EF8093E80061
:100EE0008D8987FF39C09091E80090FFFCCF982F43
:100EF000907609F034C19E894F89588D2F89F88CDE
:100F0000911131C0803861F580919E018093F1008C
:100F10001092F1008EEF8093E8006C960FB6F89473
:100F2000DEBF0FBECDBFDF91CF91FF91EF91BF919B
:100F3000AF919F918F917F916F915F914F913F9171
:100F40002F911F910F91FF90EF90DF90CF900F9016
:100F50000FBE0F901F9018959EEF9093E800C7CF9B
:100F60001092F100D5CF913059F48111D3CF413097
:100F7000510581F680919E018D7F80939E01CACF9D
:100F8000933049F48111C6CF4130510519F6809153
:100F90009E018260F2CF953041F48091E80080FF9D
:100FA000FCCF20682093E300B5CF963009F0A9C0AC
:100FB0000B8D1C8D22E01092E90010929A01109284
:100FC0009901F2122EC010929801109297010E947E
:100FD000D0021F8299E09983FA8291E09E8390EA81
:100FE00098879AEF99872091990130919A01275F0C
:100FF0003F4F3C832B838D831092E90010929A011E
:1010000010929901109398010093970149E050E0E4
:10101000BE016F5F7F4F80E00E9473020E94D0028A
:1010200079CF10939801009397010E94BC02DC01D4
:1010300012960D911C910115110509F451C1D801A9
:10104000ED91FC910480F581E02DBE016B5E7F4F38
:10105000C8010995009709F03EC1F8010085118586
:10106000EACFF3E0FF120EC08F89882309F440C055
:10107000823061F440E860E18CEA91E00E94C009AE
:10108000811148CF81E28093EB0047CF813029F472
:1010900040E86BE080EA91E0F1CF833099F70E945D
:1010A000BC02DC011296ED90FC908E010F5F1F4F89
:1010B0006801E114F10479F0D701ED91FC9106800B
:1010C000F781E02DB801C7010995080F111DF7013F
:1010D000E084F184EECFD8011C92F601019000204B
:1010E000E9F73197BF016C197D0940E0C601C6CF11
:1010F0006AE871E0FB01449150E080E80E947302CD
:1011000009CF973009F4BECF983021F481E0809365
:10111000F10000CF993009F0FDCE837009F0B2CF15
:10112000EDE0F1E081E031E096E32191222371F0DE
:101130008093E9003093EB00DF0111972C9120930D
:10114000EC009093ED008F5F873079F78EE7809306
:10115000EA001092EA008F898093A401DBCE8B8D88
:101160009C8D1092E90010929A011092990190932F
:10117000980180939701898D811192C08E899D89F4
:10118000913A49F4813209F07DCF47E050E064E0C4
:1011900071E080E0B3CF913209F074CF833269F40B
:1011A0008F89988DB0E0A0E08093000190930101B9
:1011B000A0930201B0930301ADCE803269F4809117
:1011C000E80082FFFCCF67E084E091E00E94AF027C
:1011D0008BEF8093E8009ECE823209F09BCE8F8900
:1011E00080930B01EEEFFFE7859194918B3F9C4D2F
:1011F00051F1E0E0F8E08091040190910501A091A7
:101200000601B0910701803B9440A105B105F1F4BE
:1012100080910B0180FD1AC0EE3F8AE0F80789F546
:1012200087E797E7918380838091600080939B019B
:1012300088E19BE00FB6F894A895809360000FBEFC
:101240009093600067CEEEEFFAE0D5CF8081918178
:101250008737974709F05ECEA89580916000886136
:101260008093600080919B0180936000EE3F2AE0B4
:10127000F20789F08091FE0A9091FF0A91838083A2
:1012800049CE808191818737980751F29093FF0A68
:101290008093FE0AC5CF1092FF0A1092FE0A3ACE42
:1012A0000E94BC02DC0112960D911C9101151105E2
:1012B00009F4E8CED801ED91FC910190F081E02D88
:1012C000BE016B5E7F4FC8010995811123CEF801E5
:1012D00000851185EBCF181619060CF41BCED2CE63
:1012E000F1E0FF12BECE6EE871E004CF1F920F92C4
:1012F0000FB60F9211242F933F938F939F93AF9329
:10130000BF9380919F019091A001A091A101B09104
:10131000A2013091860123E0230F2D3758F5019665
:10132000A11DB11D2093860180939F019093A00180
:10133000A093A101B093A2018091870190918801AF
:10134000A0918901B0918A010196A11DB11D8093E0
:10135000870190938801A0938901B0938A01BF917E
:10136000AF919F918F913F912F910F900FBE0F9052
:101370001F90189526E8230F0296A11DB11DD2CF0C
:10138000EF92FF920F931F93CF93DF93F82E192FB5
:10139000E62E042F81E0860F880F0E94450283E02D
:1013A0000E944502CF2DD12FEC0EFD2EF11CCE1543
:1013B000DF05B9F007FF13C0FE0184910E944502CA
:1013C000182F80E00E944502812321968111EFCFE2
:1013D000DF91CF911F910F91FF90EF900895888139
:1013E000EDCF81E0F5CFCF93DF931092A80110925B
:1013F000A70188EE93E0A0E0B0E08093A90190936C
:10140000AA01A093AB01B093AC018DE191E0909360
:10141000A6018093A5018FEF9FEF9093B201809377
:10142000B10110921F0210921E028BE391E0909383
:101430001D0280931C0280911402811113C010922E
:101440000F0210920E0288E292E0909311028093B4
:1014500010028FE290E0909313028093120281E0D9
:10146000809314028091060281112AC0C1E0C093CA
:10147000F901C093FA018FEF91E09093FC01809302
:10148000FB011092FE011092FD018FE291E090931A
:10149000F6018093F5011092010210920002109261
:1014A000030210920202C0930402C093050281EC71
:1014B0008093FF010E94BC020E945801C093060263
:1014C000E0910002F09101023097D9F58EE092E0B0
:1014D0009093010280930002809102029091030296
:1014E0002091120230911302820F931F90930302F6
:1014F00080930202C8E2D2E01D821C821F821E82FB
:101500001986188670E060E0CE0104960E94770686
:101510002C813D8181111EC02115310519F0C901B1
:101520000E94220D1D821C82198618861F821E822F
:101530002E9682E0CC37D807F9F6DF91CF91089547
:10154000FC01808191810097D9F78EE092E0918330
:101550008083C2CF1986188665E871E0C9010E94B0
:10156000710EE6CF789484B5826084BD84B58160C5
:1015700084BD85B5826085BD85B5816085BD80915E
:101580006E00816080936E001092810080918100D6
:1015900082608093810080918100816080938100CE
:1015A00080918000816080938000809191008260B2
:1015B000809391008091910081608093910080914F
:1015C00090008160809390008091C100846080933E
:1015D000C1008091C10082608093C1008091C100F0
:1015E00081608093C1008091C30081608093C300BB
:1015F0008091C00082608093C0008091C2008160B1
:101600008093C20080917A00846080937A008091F8
:101610007A00826080937A0080917A008160809362
:101620007A0080917A00806880937A001092A401F9
:1016300010929E0110929D018091D700816080934D
:10164000D70080EA8093D80089B5806189BD89B5CB
:10165000826089BD09B400FEFDCF0E94D103809154
:10166000D8008F7C80618093D8008091E000807FDB
:101670008093E0008091E1008E7E8093E1008DE018
:101680008093E200559A209A61E00E947B0360E01B
:101690008DE00E944D0309E212E0C2E0D0E0F801C3
:1016A0001082D283C183118612861386148660E06D
:1016B0008C2F0E947B03025F1F4F2196C830D105FB
:1016C00071F763E471E08CE292E00E949F066CE4A3
:1016D00071E08AE392E00E949F0668E571E088E489
:1016E00092E00E949F0661E671E086E592E00E942A
:1016F0009F0664E671E084E692E00E949F0667E63A
:1017000071E082E792E00E949F0661E089E00E941A
:101710007B0361E08BE00E947B0361E08AE00E9432
:101720007B0361E089E00E947B0361E089E00E9425
:101730004D0361E08BE00E947B0360E08BE00E9440
:101740004D0361E08AE00E947B0361E08AE00E9431
:101750004D030CE712E090E0E92E90E0F92EC8E28C
:10176000D2E02A813B813327F901E75FFD4F849165
:10177000F901E651FE4FD490F901E553FE4FC490B4
:10178000CC2009F471C081110E940103EC2DF0E01E
:10179000EE0FFF1FE354FE4FA591B491EC91DE22B2
:1017A00091E080E009F490E0C92ED82E89818C1553
:1017B0001D0479F02FB7F89480919F019091A001BA
:1017C000A091A101B091A2012FBF8A879B87AC870E
:1017D000BD872FB7F89480919F019091A001A091AF
:1017E000A101B091A2012FBF4A855B856C857D85E3
:1017F000841B950BA60BB70BC397A105B10508F188
:1018000088818C151D04E9F081E0C114D10409F42C
:1018100080E08883C114D104A1F061E08DE00E94D2
:101820004D03488559856C817D818CE192E00E9451
:10183000AC0542E050E063E871E08CE192E00E9488
:10184000AC0560E08DE00E944D038C2D8170898392
:101850002E960C171D0709F084CFE114F10409F44A
:101860007ECF0E9400007BCFD12CC12C9FCFCF9385
:10187000DF93CCE7D2E02E978C819D81009711F009
:101880000E94220D82E0C832D807A9F7DF91CF91DC
:1018900008952F923F924F925F926F927F928F9214
:1018A0009F92AF92BF92CF92DF92EF92FF920F93EF
:1018B0001F93CF93DF93CDB7DEB7CA1BDB0B0FB6F9
:1018C000F894DEBF0FBECDBF09942A8839884888B6
:1018D0005F846E847D848C849B84AA84B984C8844C
:1018E000DF80EE80FD800C811B81AA81B981CE0F43
:1018F000D11D0FB6F894DEBF0FBECDBFED01089528
:10190000EE0FFF1F0590F491E02D09940F931F93A4
:10191000CF93DF938230910510F482E090E0E09164
:101920007E02F0917F0230E020E0B0E0A0E030974E
:1019300099F42115310509F44AC0281B390B2430CC
:101940003105D8F58A819B816115710589F1FB010B
:1019500093838283FE0111C04081518102811381F2
:1019600048175907E0F04817590799F4109761F0A4
:1019700012960C93129713961C933296CF01DF9117
:10198000CF911F910F91089500937E0210937F02D3
:10199000F4CF2115310551F04217530738F0A90152
:1019A000DB019A01BD01DF01F801C1CFEF01F9CFE1
:1019B00090937F0280937E02CDCFFE01E20FF31F52
:1019C000819391932250310939832883D7CF209175
:1019D0007C0230917D02232B41F42091150130913E
:1019E000160130937D0220937C02209113013091E7
:1019F00014012115310541F42DB73EB7409117016F
:101A000050911801241B350BE0917C02F0917D026E
:101A1000E217F307A0F42E1B3F0B2817390778F0C5
:101A2000AC014E5F5F4F2417350748F04E0F5F1F24
:101A300050937D0240937C02819391939FCFF0E07D
:101A4000E0E09CCFCF93DF930097E9F0FC01329761
:101A500013821282A0917E02B0917F02ED0130E0EC
:101A600020E01097A1F420813181820F931F2091F3
:101A70007C0230917D022817390709F061C0F0938C
:101A80007D02E0937C02DF91CF910895EA01CE17A9
:101A9000DF07E8F54A815B819E0141155105B1F7E9
:101AA000E901FB83EA8349915991C40FD51FEC17D3
:101AB000FD0761F4808191810296840F951FE901F1
:101AC00099838883828193819B838A83F0E0E0E01D
:101AD00012968D919C9113970097B9F52D913C9199
:101AE0001197CD010296820F931F20917C023091B5
:101AF0007D022817390739F6309751F510927F0289
:101B000010927E02B0937D02A0937C02BCCFD3835F
:101B1000C28340815181840F951FC817D90761F492
:101B20004E5F5F4F88819981480F591F51834083D1
:101B30008A819B81938382832115310509F0B0CF7F
:101B4000F0937F02E0937E029ECFFD01DC01C0CFC7
:101B500013821282D7CFB0E0A0E0E1EBFDE00C945D
:101B60004B0C8C01009751F4CB010E94860C8C0128
:101B7000C801CDB7DEB7E0E10C94670CFC01E60FBD
:101B8000F71F9C0122503109E217F30708F49DC0AA
:101B9000D901CD91DC911197C617D70798F0C530C0
:101BA000D10530F3CE0104978617970708F3C61BBB
:101BB000D70B2297C193D1936D937C93CF010E9451
:101BC000220DD6CF5B01AC1ABD0A4C018C0E9D1EB6
:101BD000A0917E02B0917F02512C412CF12CE12C7E
:101BE000109731F580917C0290917D0288159905BE
:101BF00009F05CC04616570608F058C080911301E2
:101C000090911401009741F48DB79EB74091170150
:101C100050911801841B950BE817F90708F055C07F
:101C2000F0937D02E0937C02F90171836083A0CF81
:101C30008D919C91119712966C90129713967C90AF
:101C40001397A815B90559F56C0142E0C40ED11CD3
:101C5000CA14DB0420F1AC014A195B09DA011296BF
:101C6000159780F06282738251834083D9016D930E
:101C70007C93E114F10471F0D7011396FC93EE9379
:101C8000129776CF22968C0F9D1FF9019183808346
:101C9000F301EFCFF0937F02E0937E0269CF481605
:101CA000590608F42C017D01D3019ACFCB010E9483
:101CB000860C7C01009749F0AE01B8010E94680EC5
:101CC000C8010E94220D870153CF10E000E050CFE1
:101CD000FB01DC0102C001900D9241505040D8F749
:101CE0000895FB01DC0101900D920020E1F70895B9
:101CF00011E0CDE2D1E004C0FE010E94800C2196EB
:0A1D0000CE32D107C9F7F894FFCFE7
:101D0A00FFFFFFFF00E100000000000000C180812A
:101D1A0000000000008002800000000000C801D21C
:101D2A0004AA02DE012B02E901070200000000E812
:101D3A0004610526050B0500000000D805AC0574F2
:101D4A000673066769742070756C6C006769742085
:101D5A00636F6D6D697420006769742070757368AC
:101D6A0000342000352000486569206672612061D0
:101D7A00726475696E6F206D6163726F2070616441
:061D8A002120000D0A00FB
:2070000055C000006EC000006CC000006AC0000068C0000066C0000064C0000062C0000043
:2070200060C000005EC00000F2C400005AC0000058C0000056C0000054C0000052C00000EE
:2070400050C0000078C000004CC000004AC0000048C0000046C0000044C0000042C00000BE
:2070600040C000003EC000003CC000003AC0000038C0000036C0000034C0000032C0000048
:2070800030C000002EC000002CC000002AC0000028C0000026C0000024C0000022C00000A8
:2070A00020C000001EC000001CC0000011241FBECFEFDAE0DEBFCDBF11E0A0E0B1E0E2E3BC
:2070C000FFE702C005900D92A83AB107D9F711E0A8EAB1E001C01D92AE3BB107E1F78FD30B
:2070E00026C78ECFF89410926F0010928100109285001092840081E085BF15BE47985D9AEB
:20710000289A0C94000008952091B2013091B3012F5F3F4F3093B3012093B201932F37FFA6
:2071200003C08EEF831B982F990F921710F447980895479A08951F920F920FB60F9211246E
:207140002F938F939F93EF93FF9310928500109284008091A8019091A901009741F00197D3
:207160009093A9018093A801892B09F45D9A8091AA019091AB01009741F001979093AB0126
:207180008093AA01892B09F4289AE0E0F0E0859194918F5F9F4F49F08091AC019091AD0151
:2071A00001969093AD018093AC01FF91EF919F918F912F910F900FBE0F901F90189584E0BC
:2071C0008093E9000DC08091E8008B778093E80003C08EB3882351F08091E80082FFF9CFBE
:2071E0008091E80085FFEFCF8091F1000895982F83E08093E9008091E80085FD0DC0809136
:20720000E8008E778093E80003C08EB3882369F08091E80080FFF9CF9093F1005D9884E6CB
:2072200090E09093A9018093A80108954F925F926F927F928F929F92AF92BF92CF92DF921E
:20724000EF92FF920F931F93CF93DF9384E08093E9008091E80082FF57C2289884E690E067
:207260009093AB018093AA01AADF182F853481F48CE49DE19093AD018093AC0107B600FC4B
:20728000FDCFF999FECF81E180935700E89503C0843519F494DF8DE00DC28C34E1F38035F9
:2072A000D1F3843721F484E4A2DF80E003C2813611F489E5FFC18134B1F481DF182F7FDFE3
:2072C00090E0880F991FAA2797FDA095BA2F312F330F20E0442737FD4095542F822B932B68
:2072E000A42BB52BB8C1803711F483E5E3C1833549F4C0E0D1E089917ADF21E0C730D20714
:20730000D1F7D9C1863521F481E371DF80E3D2C1833731F487E86BDF85E969DF8EE1CAC149
:207320008536B9F4E0E0F0E093E085E090935700E89507B600FCFDCF80935700E89507B65D
:2073400000FCFDCFE058FF4FA0E7E030FA0771F7A2CF823739F4E1E0F0E089E08093570024
:207360008491A8C1863439F4E0E0F0E089E08093570084919FC18E3439F4E3E0F0E089E0E5
:2073800080935700849196C1813539F4E2E0F0E089E08093570084918DC1823631F489E521
:2073A00026DF80E024DF80E885C1823419F0873609F0E5C01092AD011092AC0100DF082FE8
:2073C000FEDEF82EFCDE682E8554823008F071C1902F80E0CF2DD0E0C82BD92B10926F00B3
:2073E000173609F04BC081E180935700E895DD24CC24C3943FC0E090AE01F090AF010091CC
:20740000B0011091B101B6E46B16D9F4ED2DF0E0EE29FF29E4918E2FEADEDD2081F082E08D
:2074200090E0A0E0B0E0E80EF91E0A1F1B1FE092AE01F092AF010093B0011093B101DC2470
:2074400018C0D801C701B695A7959795879559D5CEDE82E090E0A0E0B0E0E80EF91E0A1FF2
:207460001B1FE092AE01F092AF010093B0011093B1012197209709F0BECF7DC08090AE01F5
:207480009090AF01A090B001B090B10196E4691609F05DC083E0F40180935700E89507B63E
:2074A00000FCFDCF54C0F6E46F1661F5772031F1E090AE01F090AF010091B0011091B1019E
:2074C0007EDED82ECC24852D90E08C299D29F7010C0140925700E895112482E090E0A0E08B
:2074E000B0E0E80EF91E0A1F1B1FE092AE01F092AF010093B0011093B10102C060DE582E1A
:20750000742423C0E090AE01F090AF010091B0011091B10116950795F794E79450DE682FFA
:20752000C701F7D48091AE019091AF01A091B001B091B1010296A11DB11D8093AE01909349
:20754000AF01A093B001B093B101219704C05524772444244394209709F0A5CF96E46916B6
:2075600041F485E0F40180935700E89507B600FCFDCF8DE03CDE82E080936F009CC0833492
:2075800071F40091AE011091AF0119DE90E021E0F8010C0120935700E89511247CCE8336C8
:2075A00019F5E090AE01F090AF010091B0011091B10105DEF701E16090E021E00C0120938C
:2075C0005700E895112482E090E0A0E0B0E0E80EF91E0A1F1B1FE092AE01F092AF0100936A
:2075E000B0011093B10157CE8D3661F4E091AE01F091AF0185E080935700E89507B600FCF2
:20760000FDCF49CE823551F4E091AE01F091AF0105911491812FEBDD802F4CC0843421F5FE
:20762000E090AE01F090AF010091B0011091B10116950795F794E794C2DD682FC70169D4DE
:207640008091AE019091AF01A091B001B091B1010296A11DB11D8093AE019093AF01A093D8
:20766000B001B093B10117CE843609F5E090AE01F090AF010091B0011091B101D801C70142
:20768000B695A795979587953CD4B1DD82E090E0A0E0B0E0E80EF91E0A1F1B1FE092AE010A
:2076A000F092AF010093B0011093B10104C08B3111F08FE39CDD83E08093E9009091E8002B
:2076C0008091E8008E778093E80095FF04C010C08EB38823C9F08091E80080FFF9CF809193
:2076E000E8008E778093E80003C08EB3882361F08091E80080FFF9CF84E08093E9008091F1
:20770000E8008B778093E800DF91CF911F910F91FF90EF90DF90CF90BF90AF909F908F90AC
:207720007F906F905F904F9008959091B601892F8F77813249F58091B7018032A1F081328A
:2077400019F5913A09F58091E800877F8093E8008DE091E067E070E00BD28091E8008B770B
:207760008093E8000895913279F48091E800877F8093E8008DE091E067E070E05DD2809192
:20778000E8008E778093E800089582E061EC42E0B5D083E061E842E1B1D084E060E842E1EF
:2077A000ADC084B7877F84BF88E10FB6F89480936000109260000FBE20E880E090E00FB63F
:2077C000F89420936100809361000FBE81E085BF92E095BF3F9A209A559AE1E6F0E02083A1
:2077E000108247985D9A289A109289008AEF8093880090936F0083E080938100F0C0409116
:20780000000850910108109201081092000894B714BE88E10FB6F8948093600010926000D5
:207820000FBE292F30E0F901E270F07091FD18C090FF05C0859194918F5F9F4F81F423FFFF
:207840000FC08091090190910A014817590741F0E0E0F0E0859194918F5F9F4F09F042DC64
:20786000A0DF78941092AD011092AC010CC0DEDC36D38091AC019091AD0181549F4110F00D
:207880001092140141DC80911401882381F78091E00081608093E00025DC80E090E0089598
:2078A000FA01923049F0933061F09130F9F485E191E022E130E01EC087E291E02EE330E04D
:2078C00019C0882329F485E691E024E030E012C0813029F489E691E022E230E00BC0823006
:2078E00029F48DE891E028E130E004C080E090E020E030E091838083C90108958093E9004E
:207900008091EB0081608093EB001092ED006093EC004093ED008091EE00881F8827881F62
:2079200008958091B60188238CF403C08EB38823B1F08091E80082FFF9CF8091E8008B772A
:207940008093E80008958EB3882349F08091E80080FFF9CF8091E8008E778093E800089594
:20796000EF92FF920F931F9345D04CD008ED10E0F80180818F77808380818068808380819B
:207980008F7D808319BC1EBA1092B40180EEE82EF12CF70180818B7F8083F8018081816052
:2079A000808380E060E042E0A9DFE1EEF0E080818E7F8083E2EEF0E0808181608083808144
:2079C00088608083F70180818E7F8083F8018081806180831F910F91FF90EF900895E7ED06
:2079E000F0E08081816080838AE482BF81E08093B501B6CFE8EDF0E080818E7F808310921C
:207A0000E20008951092DA001092E10008951F920F920FB60F9211242F933F934F935F93F6
:207A20006F937F938F939F93AF93BF93EF93FF938091DA0080FF1BC08091D80080FF17C0B2
:207A40008091DA008E7F8093DA008091D90080FF0BC080E189BD82E189BD09B400FEFDCF36
:207A600081E08EBB3BD203C019BC1EBA37D28091E10080FF17C08091E20080FF13C0809138
:207A8000E2008E7F8093E2008091E20080618093E2008091D80080628093D80019BC85E049
:207AA0008EBB1CD28091E10084FF2CC08091E20084FF28C080E189BD82E189BD09B400FEC5
:207AC000FDCF8091D8008F7D8093D8008091E1008F7E8093E1008091E2008F7E8093E20012
:207AE0008091E20081608093E2008091B401882331F48091E30087FD02C081E001C084E067
:207B00008EBBECD18091E10083FF21C08091E20083FF1DC08091E100877F8093E10082E06A
:207B20008EBB1092B4018091E1008E7F8093E1008091E2008E7F8093E2008091E2008061E9
:207B40008093E20080E060E042E0D8DEC7D1FF91EF91BF91AF919F918F917F916F915F9130
:207B60004F913F912F910F900FBE0F901F9018959C014091BC015091BD014617570718F49D
:207B8000F90190E044C06115710511F0AB01F8CF8091E8008E778093E80040E050E0F0CF0F
:207BA0008EB3882309F444C0853009F443C08091E80083FF02C081E008958091E80082FD70
:207BC00031C08091E80080FF22C08091F3009091F200782F60E0292F30E0262B372B07C07A
:207BE00081918093F100415050402F5F3F4F4115510519F02830310598F390E02830310566
:207C000009F491E08091E8008E778093E8004115510531F6992321F605C08EB3882341F075
:207C2000853041F08091E80082FFF7CF80E0089582E0089583E008959C016115710529F47C
:207C40008091E8008B778093E800F90126C08EB3882391F1853091F18091E80083FF02C06C
:207C600081E008958091E80082FFF1CF06C08091F10081936150704059F02091F300809191
:207C8000F200322F20E090E0822B932B892B79F78091E8008B778093E80061157105B9F601
:207CA00005C08EB3882341F0853041F08091E80080FFF7CF80E0089582E0089583E00895C2
:207CC0000F931F93DF93CF9300D0CDB7DEB7E6EBF1E08091F100819381E0EE3BF807C9F792
:207CE00024DD8091E80083FFE4C08091B6019091B701953009F46DC0963040F4913081F1A7
:207D0000913070F0933009F0D4C02AC0983009F4A3C0993009F4B2C0963009F0CAC07CC023
:207D2000803809F4C6C0823809F0C3C08091BA0187708093E9008091EB001092E9002091DB
:207D4000E800277F2093E80090E025E0969587952A95E1F781708093F1001092F10087C0D8
:207D6000882319F0823009F0A4C08F71823009F0A0C08091B801882331F52091BA01277097
:207D800009F497C02093E9008091EB0080FF1BC0933021F48091EB00806213C08091EB0018
:207DA00080618093EB0081E090E002C0880F991F2A95E2F78093EA001092EA008091EB00E5
:207DC00088608093EB001092E9008091E800877F51C0882309F06DC01091B8011F770FB79B
:207DE000F8948091E800877F8093E8009ADD8091E80080FFFCCF8091E3008078812B809398
:207E0000E30080688093E300112311F482E001C083E08EBB0FBF4DC08058823008F049C033
:207E20008091B8019091B9016091BA01AE014F5F5F4F36DDBC01009709F43BC08091E8008E
:207E4000877F8093E80089819A8192DE8091E8008B778093E8002DC0803859F58091E800AA
:207E6000877F8093E8008091B4018093F1008091E8008E778093E80054DD1BC08823C9F4CA
:207E80009091B8019230A8F48091E800877F8093E8009093B40145DD8091B401882331F420
:207EA0008091E30087FD02C081E001C084E08EBB6CDC8091E80083FF0AC08091EB0080624E
:207EC0008093EB008091E800877F8093E8000F900F90CF91DF911F910F91089508951F9360
:207EE0008EB3882361F01091E9001092E9008091E80083FF01C0E4DE17701093E9001F916F
:207F00000895F999FECF92BD81BDF89A992780B50895262FF999FECF1FBA92BD81BD20BDBD
:207F20000FB6F894FA9AF99A0FBE01960895F894FFCF4341544552494E4100777700080031
:207F40000000000000080112011001020000084123360001000201000109023E00020100FF
:207F600080320904000001020201000524001001042402040524060001070582030800FF0C
:207F800009040100020A000000070504021000010705830210000104030904220341007216
:207FA000006400750069006E006F0020004C0065006F006E006100720064006F0000001836
:1A7FC00003410072006400750069006E006F0020004C004C004300000000D7
:00000001FF
